:100000000C942A000C9447000C9447000C94470071
:100010000C9447000C9447000C9447000C94681013
:100020000C9447000C9447000C9447000C94470034
:100030000C9447000C9447000C9447000C94470024
:100040000C9447000C9447000C9447000C94470014
:100050000C94470011241FBECFE5D8E0DEBFCDBF12
:1000600012E0A0E6B0E0E8E5F1E602C005900D92EE
:10007000AC31B107D9F712E0ACE1B2E001C01D929A
:10008000A234B107E1F70E949F1E0C94AA300C9491
:100090000000EF92FF920F931F937B018C0120E0F1
:1000A00030E040E05FE40E94F50388238CF0C80153
:1000B000B70120E030E040E05FE40E94C1010E940F
:1000C00055049B01AC01205030404040504806C0D0
:1000D000C801B7010E9455049B01AC01B901CA01D6
:1000E0001F910F91FF90EF900895A0E0B0E0EBE733
:1000F000F0E00C946E2FDC012B01FA019C91923000
:1001000008F439C1EB018881823008F433C194309E
:1001100069F4843009F02FC111969C91119789815F
:10012000981709F428C1AEECB1E025C1843009F478
:1001300021C18230A9F4923009F01DC19A01AD01AC
:1001400088E0EA010990AE01E90109929E0181501F
:10015000C1F7E201898111969C918923818308C1AD
:10016000923009F407C112962D903C901397EB0141
:100170008A819B811496AD90BD90CD90DC901797AD
:10018000EC80FD800E811F819101281B390BB90184
:1001900037FF04C066277727621B730B6032710537
:1001A0000CF061C0121613066CF537014801062EDB
:1001B00004C096948794779467940A94D2F721E0C8
:1001C00030E040E050E004C0220F331F441F551FB1
:1001D0006A95D2F721503040404050402E213F21B7
:1001E00040235123211531054105510521F021E01E
:1001F00030E040E050E079018A01E628F72808293C
:1002000019293CC0232BD1F1260E371E350146019A
:10021000062E04C096948794779467940A94D2F734
:1002200021E030E040E050E004C0220F331F441FC3
:10023000551F6A95D2F721503040404050402A2146
:100240003B214C215D21211531054105510521F04E
:1002500021E030E040E050E059016A01A628B728CB
:10026000C828D9280BC0821593052CF01C01AA249C
:10027000BB24650103C0EE24FF24870111969C91E5
:10028000D20111968C91981709F445C0992339F041
:10029000A80197012A193B094C095D0906C0A6016E
:1002A00095012E193F09400B510B57FD08C01182D3
:1002B0003382228224833583468357831DC081E0A5
:1002C00081833382228288279927DC01821B930B4A
:1002D000A40BB50B84839583A683B7830DC0220F2F
:1002E000331F441F551F24833583468357838281E0
:1002F000938101979383828324813581468157813D
:10030000DA01C9010197A109B1098F5F9F4FAF4F72
:10031000BF4328F30BC0918333822282EA0CFB1C7B
:100320000C1D1D1DE482F5820683178383E0808304
:10033000248135814681578157FF1AC0C901AA27F8
:1003400097FDA095BA2F81709070A070B0705695EF
:10035000479537952795822B932BA42BB52B848318
:100360009583A683B7838281938101969383828349
:10037000DF0101C0D201CD01CDB7DEB7E2E10C94BF
:100380008A2FA0E2B0E0E7ECF1E00C947A2F6983C9
:100390007A838B839C832D833E834F835887E9E048
:1003A000EE2EF12CEC0EFD1ECE010196B7010E943F
:1003B0007E058E010F5E1F4FCE010596B8010E948B
:1003C0007E058A8991E089278A8BC701B801AE0131
:1003D000475E5F4F0E9475000E94A904A096E6E068
:1003E0000C94962FA0E2B0E0E8EFF1E00C947A2FA5
:1003F00069837A838B839C832D833E834F835887C5
:10040000F9E0EF2EF12CEC0EFD1ECE010196B701A6
:100410000E947E058E010F5E1F4FCE010596B8012A
:100420000E947E05C701B801AE01475E5F4F0E9482
:1004300075000E94A904A096E6E00C94962FA0E215
:10044000B0E0E5E2F2E00C946E2F69837A838B834F
:100450009C832D833E834F835887CE010196BE0136
:10046000675F7F4F0E947E05CE010596BE016F5EDD
:100470007F4F0E947E059985923088F0898982306D
:10048000C8F0943019F4823051F404C0843029F457
:10049000923081F48EEC91E0C6C0923049F420E0B5
:1004A0009A858A89981321E02A87CE010996BBC0D4
:1004B000823049F420E09A858A89981321E02A8BBA
:1004C000CE014196B0C02D843E844F8458886D88FB
:1004D0007E888F88988CEE24FF248701AA24BB2471
:1004E000650140E050E060E070E0E0E0F0E0C10174
:1004F00081709070892BE9F0E60CF71C081D191D1E
:100500009A01AB012A0D3B1D4C1D5D1D80E090E062
:10051000A0E0B0E0E614F7040805190520F481E036
:1005200090E0A0E0B0E0BA01A901480F591F6A1F8E
:100530007B1FAA0CBB1CCC1CDD1C97FE08C081E0F5
:1005400090E0A0E0B0E0A82AB92ACA2ADB2A3196B6
:10055000E032F10549F0660C771C881C991C569412
:10056000479437942794C3CFFA85EA892B893C892D
:100570008B859C85280F391F2E5F3F4F17C0CA01FE
:1005800081709070892B61F016950795F794E79428
:1005900080E090E0A0E0B0E8E82AF92A0A2B1B2BC3
:1005A00076956795579547952F5F3F4F77FDE7CF36
:1005B0000CC0440F551F661F771F17FD4160EE0CDE
:1005C000FF1C001F111F21503040403090E05907A0
:1005D00090E0690790E4790760F32B8F3C8FDB0193
:1005E000CA018F779070A070B07080349105A1051A
:1005F000B10561F447FD0AC0E114F10401051105DC
:1006000029F0405C5F4F6F4F7F4F40781A8EFE1786
:1006100011F081E08A8F4D8F5E8F6F8F78A383E01A
:10062000898FCE0149960E94A904A096E2E10C941C
:100630008A2FA8E1B0E0EFE1F3E00C94762F698314
:100640007A838B839C832D833E834F835887B9E0C5
:10065000EB2EF12CEC0EFD1ECE010196B7010E948F
:100660007E058E010F5E1F4FCE010596B8010E94D8
:100670007E052985223008F47EC03989323010F495
:10068000B8017CC08A859A8989278A87243011F02D
:10069000223031F4231709F06EC06EEC71E06EC0A9
:1006A000343039F41D861E861F86188A1C861B86E8
:1006B00004C0323021F484E08987B7015FC02B8504
:1006C0003C858B899C89281B390B3C872B87ED84C3
:1006D000FE840F851889AD88BE88CF88D88CEA142F
:1006E000FB040C051D0540F4EE0CFF1C001F111F40
:1006F000215030403C872B8720E030E040E050E044
:1007000080E090E0A0E0B0E460E070E0EA14FB0478
:100710000C051D0540F0282B392B4A2B5B2BEA18C2
:10072000FB080C091D09B695A79597958795EE0CC2
:10073000FF1C001F111F6F5F7F4F6F31710531F775
:10074000DA01C9018F779070A070B0708034910584
:10075000A105B10561F427FD0AC0E114F10401050A
:10076000110529F0205C3F4F4F4F5F4F20782D87B8
:100770003E874F87588BBE01675F7F4FCB010E943A
:10078000A9046896EAE00C94922FA8E1B0E0EBECA3
:10079000F3E00C947A2F69837A838B839C832D8377
:1007A0003E834F83588789E0E82EF12CEC0EFD1E26
:1007B000CE010196B7010E947E058E010F5E1F4F8C
:1007C000CE010596B8010E947E058985823040F0F1
:1007D0008989823028F0C701B8010E94F60501C05E
:1007E0008FEF6896E6E00C94962FA8E1B0E0EBEF6F
:1007F000F3E00C947A2F69837A838B839C832D8317
:100800003E834F83588789E0E82EF12CEC0EFD1EC5
:10081000CE010196B7010E947E058E010F5E1F4F2B
:10082000CE010596B8010E947E058985823040F090
:100830008989823028F0C701B8010E94F60501C0FD
:100840008FEF6896E6E00C94962FA8E1B0E0EBE21B
:10085000F4E00C947A2F69837A838B839C832D83B5
:100860003E834F83588789E0E82EF12CEC0EFD1E65
:10087000CE010196B7010E947E058E010F5E1F4FCB
:10088000CE010596B8010E947E058985823040F030
:100890008989823028F0C701B8010E94F60501C09D
:1008A00081E06896E6E00C94962FACE0B0E0EBE5D2
:1008B000F4E00C947E2F69837A838B839C83CE0132
:1008C0000196BE016B5F7F4F0E947E058D81823055
:1008D00061F1823050F1843021F48E81882351F10E
:1008E0002EC02F81388537FD20C06E812F31310514
:1008F0001CF06623F9F023C08EE190E0821B930B7D
:1009000029853A854B855C8504C056954795379572
:1009100027958A95D2F76623B1F05095409530958A
:1009200021953F4F4F4F5F4F0EC020E030E040E039
:1009300050E009C02FEF3FEF4FEF5FE704C020E02A
:1009400030E040E050E8B901CA012C96E2E00C9496
:100950009A2FDF92EF92FF920F931F93FC01E48096
:10096000F58006811781D1808081823048F480E053
:1009700090E0A0E1B0E0E82AF92A0A2B1B2BA5C0E1
:10098000843009F49FC0823021F4EE24FF248701D3
:1009900005C0E114F1040105110519F4E0E0F0E0EF
:1009A00096C0628173819FEF623879070CF05BC05B
:1009B00022E83FEF261B370B2A3131052CF020E0CF
:1009C00030E040E050E02AC0B801A701022E04C088
:1009D00076956795579547950A94D2F781E090E010
:1009E000A0E0B0E004C0880F991FAA1FBB1F2A9582
:1009F000D2F70197A109B1098E219F21A023B1232C
:100A00000097A105B10521F081E090E0A0E0B0E001
:100A10009A01AB01282B392B4A2B5B2BDA01C90138
:100A20008F779070A070B07080349105A105B105EA
:100A300039F427FF09C0205C3F4F4F4F5F4F04C080
:100A4000215C3F4F4F4F5F4FE0E0F0E02030A0E0EF
:100A50003A07A0E04A07A0E45A0710F0E1E0F0E00E
:100A600079018A0127C06038710564F5FB01E158FE
:100A7000FF4FD801C7018F779070A070B07080349D
:100A80009105A105B10539F4E7FE0DC080E490E0C1
:100A9000A0E0B0E004C08FE390E0A0E0B0E0E80E9A
:100AA000F91E0A1F1B1F17FF05C016950795F7941F
:100AB000E794319687E016950795F794E7948A9521
:100AC000D1F705C0EE24FF248701EFEFF0E06E2F91
:100AD000679566276795902F9F77D794DD24D794E5
:100AE0008E2F8695492F462B582F5D29B701CA01B5
:100AF0001F910F91FF90EF90DF900895FC01DB01B3
:100B0000408151812281622F6F7770E0221F22275E
:100B1000221F9381892F880F822B282F30E0991F65
:100B20009927991F11969C93119721153105A9F5C5
:100B3000411551056105710511F482E037C082E865
:100B40009FEF13969C938E9312979A01AB0167E0E7
:100B5000220F331F441F551F6A95D1F783E08C93F2
:100B60000DC0220F331F441F551F12968D919C916B
:100B70001397019713969C938E931297203080E0E1
:100B8000380780E0480780E4580758F314962D93FF
:100B90003D934D935C93179708952F3F310579F45A
:100BA000411551056105710519F484E08C93089590
:100BB00064FF03C081E08C9312C01C9210C02F57B9
:100BC000304013963C932E93129783E08C9387E0EA
:100BD000440F551F661F771F8A95D1F770641496CE
:100BE0004D935D936D937C93179708951F93DC014C
:100BF000FB019C91923008F447C08081823008F458
:100C000043C0943051F411961C91843099F5818140
:100C1000682F70E0611B71093FC0843021F0923071
:100C200031F48230B9F18181882389F12DC0119688
:100C30001C9111978230F1F081811817D9F4129626
:100C40002D913C911397828193818217930794F0A1
:100C500028173907BCF014968D919D910D90BC9189
:100C6000A02D2481358146815781281739074A07ED
:100C70005B0718F4112341F00AC082179307A407F9
:100C8000B50740F4112319F061E070E005C06FEF83
:100C90007FEF02C060E070E0CB011F910895DF9309
:100CA000CF9300D000D0CDB7DEB789836A83898126
:100CB000282F30E03C832B838B819C8181309105F0
:100CC00009F12B813C81223031052CF48B819C81F0
:100CD000009761F03AC02B813C8122303105F1F060
:100CE0008B819C818330910529F12FC08A818823D3
:100CF00021F4EAE3F0E0108228C0EAE3F0E08FEFAD
:100D0000808323C08A81882321F4E7E3F0E0108206
:100D10001CC0E7E3F0E08FEF808317C08A8188234F
:100D200021F4E4E3F0E0108210C0E4E3F0E08FEFA0
:100D300080830BC08A81882321F4E1E3F0E01082F4
:100D400004C0E1E3F0E08FEF80830F900F900F90ED
:100D50000F90CF91DF910895DF93CF9300D000D013
:100D6000CDB7DEB789836A838981282F30E03C8341
:100D70002B838B819C8181309105D1F02B813C812B
:100D8000223031052CF48B819C81009761F01EC0CC
:100D90002B813C812230310581F08B819C81833015
:100DA000910581F013C0EBE3F0E08A8180830EC0EF
:100DB000E8E3F0E08A81808309C0E5E3F0E08A811E
:100DC000808304C0E2E3F0E08A8180830F900F907B
:100DD0000F900F90CF91DF910895DF93CF9300D0C4
:100DE00000D00F92CDB7DEB789836A834B838981A8
:100DF000282F30E03D832C838C819D8181309105AB
:100E000009F459C02C813D81223031052CF48C81AC
:100E10009D81009771F013C12C813D8122303105F5
:100E200009F48BC08C819D818330910509F4C7C082
:100E300006C18B818130A1F4AAE3B0E0EAE3F0E0DF
:100E40008081482F8A81282F30E081E090E0022EB7
:100E500002C0880F991F0A94E2F7842B8C93EFC08D
:100E60008B81882309F0EBC0AAE3B0E0EAE3F0E06D
:100E70008081482F8A81282F30E081E090E002C0F5
:100E8000880F991F2A95E2F7809584238C93ABE312
:100E9000B0E0EBE3F0E08081482F8A81282F30E03A
:100EA00081E090E0022E02C0880F991F0A94E2F7B9
:100EB000842B8C93C4C08B818130A1F4A7E3B0E074
:100EC000E7E3F0E08081482F8A81282F30E081E03D
:100ED00090E0022E02C0880F991F0A94E2F7842B3B
:100EE0008C93ADC08B81882309F0A9C0A7E3B0E043
:100EF000E7E3F0E08081482F8A81282F30E081E00D
:100F000090E002C0880F991F2A95E2F7809584230C
:100F10008C93A8E3B0E0E8E3F0E08081482F8A8179
:100F2000282F30E081E090E0022E02C0880F991F48
:100F30000A94E2F7842B8C9382C08B818130A1F4D8
:100F4000A4E3B0E0E4E3F0E08081482F8A81282F19
:100F500030E081E090E0022E02C0880F991F0A94D1
:100F6000E2F7842B8C936BC08B81882309F067C0D8
:100F7000A4E3B0E0E4E3F0E08081482F8A81282FE9
:100F800030E081E090E002C0880F991F2A95E2F7D7
:100F9000809584238C93A5E3B0E0E5E3F0E08081C5
:100FA000482F8A81282F30E081E090E0022E02C095
:100FB000880F991F0A94E2F7842B8C9340C08B8191
:100FC0008130A1F4A1E3B0E0E1E3F0E08081482FBB
:100FD0008A81282F30E081E090E0022E02C0880F45
:100FE000991F0A94E2F7842B8C9329C08B81882364
:100FF00031F5A1E3B0E0E1E3F0E08081482F8A81A0
:10100000282F30E081E090E002C0880F991F2A95D8
:10101000E2F7809584238C93A2E3B0E0E2E3F0E072
:101020008081482F8A81282F30E081E090E0022ED5
:1010300002C0880F991F0A94E2F7842B8C930F90BB
:101040000F900F900F900F90CF91DF910895DF9345
:10105000CF9300D000D0CDB7DEB789836A83898172
:10106000282F30E03C832B838B819C81813091053C
:10107000D1F02B813C81223031052CF48B819C8175
:10108000009761F01EC02B813C812230310581F038
:101090008B819C818330910581F013C0E9E3F0E0FE
:1010A0008A8180830EC0E6E3F0E08A81808309C0F4
:1010B000E3E3F0E08A81808304C0E0E3F0E08A812A
:1010C00080830F900F900F900F90CF91DF91089534
:1010D000DF93CF9300D000D00F92CDB7DEB78A83D5
:1010E0006B8319828A81282F30E03D832C834C81C9
:1010F0005D814130510559F18C819D81823091058E
:1011000034F42C813D812115310569F05BC04C819F
:101110005D814230510579F18C819D81833091054B
:1011200009F43DC04FC0E9E3F0E080818983898103
:10113000282F30E08B81882F90E0A90102C05595BF
:1011400047958A95E2F7CA01817089833BC0E6E33F
:10115000F0E0808189838981282F30E08B81882F7E
:1011600090E0A90102C0559547958A95E2F7CA011A
:101170008170898327C0E3E3F0E0808189838981DE
:10118000282F30E08B81882F90E0A90102C055956F
:1011900047958A95E2F7CA018170898313C0E0E31D
:1011A000F0E0808189838981282F30E08B81882F2E
:1011B00090E0A90102C0559547958A95E2F7CA01CA
:1011C0008170898389810F900F900F900F900F90FD
:1011D000CF91DF910895DF93CF9300D000D00F928D
:1011E000CDB7DEB789836A834B838981282F30E0AE
:1011F0003D832C838C819D818130910509F447C00A
:101200002C813D81223031052CF48C819D81009709
:1012100071F0CBC02C813D812230310509F467C0CB
:101220008C819D818330910509F491C0BEC08B8172
:101230008130A1F4ABE3B0E0EBE3F0E08081482F34
:101240008A81282F30E081E090E0022E02C0880FD2
:10125000991F0A94E2F7842B8C93A7C08B81882373
:1012600009F0A3C0ABE3B0E0EBE3F0E08081482FEE
:101270008A81282F30E081E090E0022E02C0880FA2
:10128000991F0A94E2F7809584238C938EC08B81FA
:101290008130A1F4A8E3B0E0E8E3F0E08081482FDA
:1012A0008A81282F30E081E090E0022E02C0880F72
:1012B000991F0A94E2F7842B8C9377C08B81882343
:1012C00009F073C0A8E3B0E0E8E3F0E08081482FC4
:1012D0008A81282F30E081E090E0022E02C0880F42
:1012E000991F0A94E2F7809584238C935EC08B81CA
:1012F0008130A1F4A5E3B0E0E5E3F0E08081482F80
:101300008A81282F30E081E090E0022E02C0880F11
:10131000991F0A94E2F7842B8C9347C08B81882312
:1013200009F043C0A5E3B0E0E5E3F0E08081482F99
:101330008A81282F30E081E090E0022E02C0880FE1
:10134000991F0A94E2F7809584238C932EC08B8199
:101350008130A1F4A2E3B0E0E2E3F0E08081482F25
:101360008A81282F30E081E090E0022E02C0880FB1
:10137000991F0A94E2F7842B8C9317C08B818823E2
:10138000A1F4A2E3B0E0E2E3F0E08081482F8A819B
:10139000282F30E081E090E0022E02C0880F991FD4
:1013A0000A94E2F7809584238C930F900F900F900E
:1013B0000F900F90CF91DF910895DF93CF9300D0DE
:1013C00000D00F92CDB7DEB789836A834B838981C2
:1013D000282F30E03D832C838C819D8181309105C5
:1013E00009F447C02C813D81223031052CF48C81D9
:1013F0009D81009771F0CBC02C813D812230310559
:1014000009F467C08C819D818330910509F491C0F6
:10141000BEC08B818130A1F4A9E3B0E0E9E3F0E044
:101420008081482F8A81282F30E081E090E0022ED1
:1014300002C0880F991F0A94E2F7842B8C93A7C0EF
:101440008B81882309F0A3C0A9E3B0E0E9E3F0E0D1
:101450008081482F8A81282F30E081E090E0022EA1
:1014600002C0880F991F0A94E2F7809584238C9319
:101470008EC08B818130A1F4A6E3B0E0E6E3F0E01A
:101480008081482F8A81282F30E081E090E0022E71
:1014900002C0880F991F0A94E2F7842B8C9377C0BF
:1014A0008B81882309F073C0A6E3B0E0E6E3F0E0A7
:1014B0008081482F8A81282F30E081E090E0022E41
:1014C00002C0880F991F0A94E2F7809584238C93B9
:1014D0005EC08B818130A1F4A3E3B0E0E3E3F0E0F0
:1014E0008081482F8A81282F30E081E090E0022E11
:1014F00002C0880F991F0A94E2F7842B8C9347C08F
:101500008B81882309F043C0A3E3B0E0E3E3F0E07C
:101510008081482F8A81282F30E081E090E0022EE0
:1015200002C0880F991F0A94E2F7809584238C9358
:101530002EC08B818130A1F4A0E3B0E0E0E3F0E0C5
:101540008081482F8A81282F30E081E090E0022EB0
:1015500002C0880F991F0A94E2F7842B8C9317C05E
:101560008B818823A1F4A0E3B0E0E0E3F0E0808188
:10157000482F8A81282F30E081E090E0022E02C0BF
:10158000880F991F0A94E2F7809584238C930F901B
:101590000F900F900F900F90CF91DF910895DF93F0
:1015A000CF9300D000D0CDB7DEB78A8319828A816D
:1015B000282F30E03C832B838B819C8181309105E7
:1015C000D1F02B813C81223031052CF48B819C8120
:1015D000009761F01EC02B813C812230310581F0E3
:1015E0008B819C818330910581F013C0EBE3F0E0A7
:1015F000808189830EC0E8E3F0E08081898309C09F
:10160000E5E3F0E08081898304C0E2E3F0E08081DB
:10161000898389810F900F900F900F90CF91DF9168
:101620000895DF93CF9300D000D0CDB7DEB78A8383
:1016300019828A81282F30E03C832B838B819C8107
:1016400081309105D1F02B813C81223031052CF481
:101650008B819C81009761F01EC02B813C812230E0
:10166000310581F08B819C818330910581F013C01D
:10167000E9E3F0E0808189830EC0E6E3F0E0808159
:10168000898309C0E3E3F0E08081898304C0E0E35B
:10169000F0E08081898389810F900F900F900F90E7
:1016A000CF91DF910895DF93CF9300D000D00F92B8
:1016B000CDB7DEB78A836B8319828A81282F30E009
:1016C0003D832C834C815D814130510559F18C81E2
:1016D0009D818230910534F42C813D8121153105A5
:1016E00069F05BC04C815D814230510579F18C819C
:1016F0009D818330910509F43DC04FC0EBE3F0E0DC
:10170000808189838981282F30E08B81882F90E028
:10171000A90102C0559547958A95E2F7CA018170E3
:1017200089833BC0E8E3F0E0808189838981282FA9
:1017300030E08B81882F90E0A90102C05595479534
:101740008A95E2F7CA018170898327C0E5E3F0E05A
:10175000808189838981282F30E08B81882F90E0D8
:10176000A90102C0559547958A95E2F7CA01817093
:10177000898313C0E2E3F0E0808189838981282F87
:1017800030E08B81882F90E0A90102C055954795E4
:101790008A95E2F7CA018170898389810F900F9041
:1017A0000F900F900F90CF91DF910895DF93CF931B
:1017B00000D00F92CDB7DEB789838981282F30E022
:1017C0003B832A838A819B818430910529F12A8178
:1017D0003B812530310534F48A819B81813091052C
:1017E00061F047C02A813B812031310521F18A8196
:1017F0009B818034910571F13CC0A1E2B0E0E1E24F
:10180000F0E080818D7F8C93A1E2B0E0E1E2F0E036
:1018100080818E7F8C933BC0A1E2B0E0E1E2F0E0FA
:10182000808182608C93A1E2B0E0E1E2F0E080810F
:101830008E7F8C932CC0A1E2B0E0E1E2F0E08081E9
:1018400081608C93A1E2B0E0E1E2F0E080818D7FE5
:101850008C931DC0A1E2B0E0E1E2F0E08081826003
:101860008C93A1E2B0E0E1E2F0E0808181608C93B2
:101870000EC0A1E2B0E0E1E2F0E080818D7F8C93C8
:10188000A1E2B0E0E1E2F0E080818E7F8C930F90E6
:101890000F900F90CF91DF910895DF93CF93CDB745
:1018A000DEB7E1E2F0E01082E0E2F0E080E1808388
:1018B000A6E5B0E0E6E5F0E0808184608C93CF910E
:1018C000DF910895DF93CF93CDB7DEB761970FB661
:1018D000F894DEBF0FBECDBF8F8780E090E0A0EA16
:1018E000B0E48B879C87AD87BE876B857C858D85B3
:1018F0009E8520E030E04AEF54E40E941F02DC01A4
:10190000CB018F839887A987BA876F81788589856E
:101910009A8520E030E040E85FE30E9425048823B8
:101920002CF481E090E09E838D833FC06F817885A9
:1019300089859A8520E03FEF4FE757E40E94C50371
:1019400018164CF56B857C858D859E8520E030E0F2
:1019500040E251E40E941F02DC01CB01BC01CD0139
:101960000E944900DC01CB019E838D830FC088EC6F
:1019700090E09C838B838B819C810197F1F79C8302
:101980008B838D819E8101979E838D838D819E8126
:10199000009769F714C06F81788589859A850E94C0
:1019A0004900DC01CB019E838D838D819E819A83CA
:1019B000898389819A810197F1F79A838983E6E582
:1019C000F0E084EA8083E6E5F0E080818823DCF7BC
:1019D0008F85282F30E0398B288B88899989813031
:1019E000910531F0288939892230310561F015C01F
:1019F000E1E2F0E08081882F90E0887F907088306D
:101A00009105B1F70AC0E1E2F0E08081882F90E013
:101A1000887F907080319105B1F761960FB6F89488
:101A2000DEBF0FBECDBFCF91DF910895DF93CF937F
:101A3000CDB7DEB763970FB6F894DEBF0FBECDBF4C
:101A4000888B698B1F8680E090E0A0EAB0E48B87EA
:101A50009C87AD87BE876B857C858D859E8520E0C4
:101A600030E04AEF54E40E941F02DC01CB018F8377
:101A70009887A987BA876F81788589859A8520E0BC
:101A800030E040E85FE30E94250488232CF481E0E5
:101A900090E09E838D833FC06F81788589859A858C
:101AA00020E03FEF4FE757E40E94C50318164CF5BE
:101AB0006B857C858D859E8520E030E040E251E499
:101AC0000E941F02DC01CB01BC01CD010E94490034
:101AD000DC01CB019E838D830FC088EC90E09C835A
:101AE0008B838B819C810197F1F79C838B838D8104
:101AF0009E8101979E838D838D819E81009769F7DA
:101B000014C06F81788589859A850E944900DC011F
:101B1000CB019E838D838D819E819A838983898168
:101B20009A810197F1F79A8389838889282F30E079
:101B30003B8B2A8B8A899B898130910531F02A89D8
:101B40003B8922303105C9F038C0E3E2F0E08989F1
:101B50008083E6E5F0E084E88083E6E5F0E08081DC
:101B60008823DCF7E1E2F0E08081882F90E0887F35
:101B7000907088329105B1F720C0E3E2F0E08989E6
:101B80008083E6E5F0E084E88083E6E5F0E08081AC
:101B90008823DCF7E1E2F0E08081887F8F870AC04C
:101BA0008F85883211F488E18F878F85803411F416
:101BB00088E18F878F85883199F763960FB6F894FF
:101BC000DEBF0FBECDBFCF91DF910895DF93CF93DE
:101BD0000F92CDB7DEB7898389818823A1F4E6E52A
:101BE000F0E084E88083E6E5F0E080818823DCF79C
:101BF000E1E2F0E08081882F90E0887F9070883566
:101C00009105B1F713C0E6E5F0E084EC8083E6E5EA
:101C1000F0E080818823DCF7E1E2F0E08081882F2A
:101C200090E0887F907080359105B1F7E3E2F0E0B5
:101C300080810F90CF91DF910895DF93CF93CDB73F
:101C4000DEB7E6E5F0E084E98083CF91DF91089587
:101C5000DF93CF93CDB7DEB7E9E2F0E083E3808393
:101C6000E0E4F0E01082E0E4F0E086E88083EAE27D
:101C7000F0E088E18083CF91DF910895DF93CF93E7
:101C80000F92CDB7DEB78983EBE2F0E08081882F39
:101C900090E0807290700097B9F3ECE2F0E08981F7
:101CA00080830F90CF91DF910895DF93CF9300D081
:101CB00000D0CDB7DEB79B838A836C8384E20E9419
:101CC0003E0E8C81805D0E943E0E8CE30E943E0E93
:101CD000198224C08981282F30E08A819B81FC01F0
:101CE000E20FF31F80818A32B1F08981282F30E022
:101CF0008A819B81FC01E20FF31F80818E3259F0B3
:101D00008981282F30E08A819B81FC01E20FF31F3B
:101D100080810E943E0E89818F5F89838981282F6F
:101D200030E08A819B81FC01E20FF31F80818823D0
:101D300089F60F900F900F900F90CF91DF9108953B
:101D4000DF93CF930F92CDB7DEB7EBE2F0E0808167
:101D50008823DCF7ECE2F0E08081898389810E94AE
:101D60006A0F89810E94861E8983ABE2B0E0EBE2B4
:101D7000F0E0808180688C9389810F90CF91DF9112
:101D80000895DF93CF93CDB7DEB72A970FB6F894B7
:101D9000DEBF0FBECDBF8F8368871E821D821C826F
:101DA0001B821A8219829091DD018F81891719F4A3
:101DB00089E08B8309C09091DC018F81891719F428
:101DC00086E08B8301C01B828885882311F081E027
:101DD00089838981882359F08E81882F90E0FC01C6
:101DE000E45EFD4F8AE280838E818F5F8E831D8249
:101DF0002CC00E94A00E8A8380912B02882331F090
:101E000081E080932C021A86198659C08A818B3210
:101E100019F485E08C8316C08E81882F90E0FC0138
:101E2000E45EFD4F8A8180838E81882F90E0FC01E3
:101E3000E45EFD4F8081882F90E00E9411168E8114
:101E40008F5F8E838D818F5F8D839D818B819817AE
:101E500018F48C81853069F68C81853091F48D8100
:101E600081508D830EC08E81882F90E0FC01E45E4E
:101E7000FD4F8EE280838D818F5F8D838E818F5F9A
:101E80008E839D818B81981770F38981882361F0FF
:101E90008E81882F90E0FC01E45EFD4F8AE2808312
:101EA00019828E818F5F8E838E81882F90E0FC0156
:101EB000E45EFD4F108281E090E09A8789878985F2
:101EC0009A852A960FB6F894DEBF0FBECDBFCF918C
:101ED000DF910895DF93CF930F92CDB7DEB789835B
:101EE00089818D3221F481E080932B0202C010920F
:101EF0002B020F90CF91DF910895DF93CF9300D005
:101F00000F92CDB7DEB789838981282F30E03B83DC
:101F10002A838A819B818230910509F44EC02A81EF
:101F20003B812330310554F48A819B810097C9F0AD
:101F30002A813B812130310551F196C08A819B81F4
:101F40008430910509F465C02A813B812430310534
:101F50000CF449C08A819B818530910509F46FC0DA
:101F600083C0AEE4B0E0EEE4F0E080818E7F8C933D
:101F7000AEE4B0E0EEE4F0E080818D7F8C93AEE4DF
:101F8000B0E0EEE4F0E080818B7F8C936DC0AEE436
:101F9000B0E0EEE4F0E0808181608C93AEE4B0E0EC
:101FA000EEE4F0E080818D7F8C93AEE4B0E0EEE46F
:101FB000F0E080818B7F8C9357C0AEE4B0E0EEE41C
:101FC000F0E080818E7F8C93AEE4B0E0EEE4F0E050
:101FD000808182608C93AEE4B0E0EEE4F0E080813A
:101FE0008B7F8C9341C0AEE4B0E0EEE4F0E0808102
:101FF00081608C93AEE4B0E0EEE4F0E0808182603A
:102000008C93AEE4B0E0EEE4F0E080818B7F8C93C3
:102010002BC0AEE4B0E0EEE4F0E080818E7F8C93E4
:10202000AEE4B0E0EEE4F0E080818D7F8C93AEE42E
:10203000B0E0EEE4F0E0808184608C9315C0AEE403
:10204000B0E0EEE4F0E0808181608C93AEE4B0E03B
:10205000EEE4F0E080818D7F8C93AEE4B0E0EEE4BE
:10206000F0E0808184608C930F900F900F90CF915F
:10207000DF910895DF93CF9300D0CDB7DEB79A8379
:102080008983EAE4F0E089819A81918380830F90CB
:102090000F90CF91DF910895DF93CF93CDB7DEB747
:1020A000A9E5B0E0E9E5F0E0808180618C93CF9113
:1020B000DF910895DF93CF93CDB7DEB7AEE4B0E004
:1020C000EEE4F0E0808188608C93CF91DF910895F9
:1020D0001F920F920FB60F9211242F933F934F939D
:1020E0005F936F937F938F939F93AF93BF93EF9380
:1020F000FF93DF93CF93CDB7DEB780912D02909100
:102100002E02009729F0E0912D02F0912E02099500
:10211000CF91DF91FF91EF91BF91AF919F918F91FF
:102120007F916F915F914F913F912F910F900FBED3
:102130000F901F901895DF93CF9300D0CDB7DEB7E7
:102140009A83898389819A8190932E0280932D02AC
:102150000F900F90CF91DF910895DF93CF9300D030
:10216000CDB7DEB79A838983E6E4F0E089819A816E
:10217000918380830F900F90CF91DF910895DF932B
:10218000CF93CDB7DEB7AFE4B0E0EFE4F0E080810D
:1021900082608C93AFE4B0E0EFE4F0E08081806295
:1021A0008C93AFE4B0E0EFE4F0E0808182608C9348
:1021B000AEE4B0E0EEE4F0E0808188608C93AEE4C1
:1021C000B0E0EEE4F0E0808180618C93AFE4B0E0B9
:1021D000EFE4F0E0808180688C93CF91DF910895E7
:1021E0000F931F93DF93CF93CDB7DEB7C655D04083
:1021F0000FB6F894DEBF0FBECDBF81E061E00E9454
:102200004F0680E061E00E944F0680E060E040E021
:102210000E94EB0880E061E040E00E94EB0888E368
:1022200060E040E00E944514FE01ED5AFF4F80E05F
:1022300090E0A0E3B1E480839183A283B3838E0115
:10224000015B1F4FFE01ED5AFF4F6081718182815A
:1022500093812BEA3AEA4AE250E40E941F02DC0131
:10226000CB01F80180839183A283B383FE01E15BFC
:10227000FF4F608171818281938120E030E040E8EE
:102280005FE30E942504882334F4FE01E25BFF4FE4
:1022900081E08083E0C0FE01E15BFF4F60817181DE
:1022A0008281938120E030E04FE753E40E94C50330
:1022B00018160CF0C0C0FE01ED5AFF4F608171810D
:1022C0008281938120E030E04AE754E40E941903C0
:1022D000DC01CB01FE01E65BFF4F80839183A2838B
:1022E000B3838E010A5B1F4FFE01E65BFF4F6081E7
:1022F00071818281938120E030E04AEF54E40E94B2
:102300001F02DC01CB01F80180839183A283B38398
:10231000FE01EA5BFF4F608171818281938120E041
:1023200030E040E85FE30E942504882344F4FE0186
:10233000EC5BFF4F81E090E09183808364C0FE01FD
:10234000EA5BFF4F608171818281938120E03FEFE2
:102350004FE757E40E94C50318160CF043C0FE0176
:10236000E65BFF4F608171818281938120E030E0E4
:1023700040E251E40E941F02DC01CB018E010C5BA4
:102380001F4FBC01CD010E944900DC01CB01F801C7
:10239000918380831FC0FE01EE5BFF4F88EC90E0CD
:1023A00091838083FE01EE5BFF4F808191810197D5
:1023B000F1F7FE01EE5BFF4F91838083DE01AC5BA2
:1023C000BF4FFE01EC5BFF4F808191810197119619
:1023D0009C938E93FE01EC5BFF4F8081918100976F
:1023E000D1F642C08E010C5B1F4FFE01EA5BFF4F2E
:1023F00060817181828193810E944900DC01CB015F
:10240000F80191838083DE01A05CBF4FFE01EC5B8D
:10241000FF4F8081918111969C938E93FE01E05C29
:10242000FF4F808191810197F1F7FE01E05CFF4F42
:102430009183808319C08E01025B1F4FFE01E15B17
:10244000FF4F60817181828193810E944900DC018C
:10245000CB01F8018083FE01E25BFF4F80818FAFEB
:102460008FAD8A95F1F78FAF8CE060E040E00E947D
:10247000451480E090E0A0E3B1E48BAF9CAFADAF3A
:10248000BEAF6BAD7CAD8DAD9EAD2BEA3AEA4AE2B4
:1024900050E40E941F02DC01CB018FAB98AFA9AFC3
:1024A000BAAF6FA978AD89AD9AAD20E030E040E8D1
:1024B0005FE30E94250488231CF481E08EAB91C069
:1024C0006FA978AD89AD9AAD20E030E04FE753E4D5
:1024D0000E94C50318160CF07BC06BAD7CAD8DADB2
:1024E0009EAD20E030E04AE754E40E941903DC018D
:1024F000CB018AAB9BABACABBDAB6AA97BA98CA96A
:102500009DA920E030E04AEF54E40E941F02DC0164
:10251000CB018EA79FA7A8ABB9AB6EA57FA588A955
:1025200099A920E030E040E85FE30E942504882379
:102530002CF481E090E09DA78CA73FC06EA57FA5FD
:1025400088A999A920E03FEF4FE757E40E94C5030F
:1025500018164CF56AA97BA98CA99DA920E030E04A
:1025600040E251E40E941F02DC01CB01BC01CD011D
:102570000E944900DC01CB019DA78CA70FC088EC0D
:1025800090E09BA78AA78AA59BA50197F1F79BA737
:102590008AA78CA59DA501979DA78CA78CA59DA515
:1025A000009769F724C06EA57FA588A999A90E9404
:1025B0004900DC01CB019DA78CA78CA59DA599A7FF
:1025C00088A788A599A50197F1F799A788A70FC0B3
:1025D0006FA978AD89AD9AAD0E944900DC01CB01AD
:1025E0008EAB8EA98FA38FA18A95F1F78FA381E07F
:1025F00060E040E00E94451480E090E0A0E0B0E49C
:102600008BA39CA3ADA3BEA36BA17CA18DA19EA116
:1026100020E030E04AEF54E40E941F02DC01CB01CD
:102620008F8F98A3A9A3BAA36F8D78A189A19AA12E
:1026300020E030E040E85FE30E94250488232CF48A
:1026400081E090E09E8F8D8F3FC06F8D78A189A132
:102650009AA120E03FEF4FE757E40E94C503181608
:102660004CF56BA17CA18DA19EA120E030E040E261
:1026700051E40E941F02DC01CB01BC01CD010E948C
:102680004900DC01CB019E8F8D8F0FC088EC90E05C
:102690009C8F8B8F8B8D9C8D0197F1F79C8F8B8FEF
:1026A0008D8D9E8D01979E8F8D8F8D8D9E8D009728
:1026B00069F714C06F8D78A189A19AA10E94490081
:1026C000DC01CB019E8F8D8F8D8D9E8D9A8F898F92
:1026D000898D9A8D0197F1F79A8F898F86E060E056
:1026E00040E00E94451480E090E0A0E3B1E48D8BCF
:1026F0009E8BAF8BB88F6D897E898F89988D2BEAE1
:102700003AEA4AE250E40E941F02DC01CB01898BC5
:102710009A8BAB8BBC8B69897A898B899C8920E0E9
:1027200030E040E85FE30E94250488231CF481E048
:10273000888B91C069897A898B899C8920E030E0F7
:102740004FE753E40E94C50318160CF07BC06D8957
:102750007E898F89988D20E030E04AE754E40E941A
:102760001903DC01CB018C879D87AE87BF876C8501
:102770007D858E859F8520E030E04AEF54E40E94FD
:102780001F02DC01CB0188879987AA87BB876885F0
:1027900079858A859B8520E030E040E85FE30E94F0
:1027A000250488232CF481E090E09F838E833FC032
:1027B000688579858A859B8520E03FEF4FE757E460
:1027C0000E94C50318164CF56C857D858E859F8506
:1027D00020E030E040E251E40E941F02DC01CB0126
:1027E000BC01CD010E944900DC01CB019F838E8397
:1027F0000FC088EC90E09D838C838C819D81019734
:10280000F1F79D838C838E819F8101979F838E83B7
:102810008E819F81009769F724C0688579858A85B4
:102820009B850E944900DC01CB019F838E838E81B2
:102830009F819B838A838A819B810197F1F79B8388
:102840008A830FC069897A898B899C890E94490093
:10285000DC01CB01888B8889898389818A95F1F78E
:10286000898380E690E00E94221681E060E20E9467
:10287000CB17CA5ADF4F0FB6F894DEBF0FBECDBFDD
:10288000CF91DF911F910F910895DF93CF93CDB733
:10289000DEB7E3970FB6F894DEBF0FBECDBF89ABAE
:1028A0006AAB4BAB8BA9882331F480E060E040E059
:1028B0000E94EB0805C080E060E041E00E94EB0868
:1028C0008AA9882351F480E061E040E00E94EB088F
:1028D00081E069A90E94AC0609C080E061E041E0A6
:1028E0000E94EB0881E060E00E944F0680E062E019
:1028F00041E00E94EB0880E090E0A0E2B1E48DA707
:102900009EA7AFA7B8AB6DA57EA58FA598A92BEA0A
:102910003AEA4AE250E40E941F02DC01CB0189A797
:102920009AA7ABA7BCA769A57AA58BA59CA520E013
:1029300030E040E85FE30E94250488231CF481E036
:1029400088A791C069A57AA58BA59CA520E030E059
:102950004FE753E40E94C50318160CF07BC06DA529
:102960007EA58FA598A920E030E04AE754E40E94B4
:102970001903DC01CB018CA39DA3AEA3BFA36CA163
:102980007DA18EA19FA120E030E04AEF54E40E9497
:102990001F02DC01CB0188A399A3AAA3BBA368A152
:1029A00079A18AA19BA120E030E040E85FE30E948A
:1029B000250488232CF481E090E09F8F8E8F3FC008
:1029C00068A179A18AA19BA120E03FEF4FE757E4DE
:1029D0000E94C50318164CF56CA17DA18EA19FA184
:1029E00020E030E040E251E40E941F02DC01CB0114
:1029F000BC01CD010E944900DC01CB019F8F8E8F6D
:102A00000FC088EC90E09D8F8C8F8C8D9D8D0197F1
:102A1000F1F79D8F8C8F8E8D9F8D01979F8F8E8F5D
:102A20008E8D9F8D009769F724C068A179A18AA136
:102A30009BA10E944900DC01CB019F8F8E8F8E8D60
:102A40009F8D9B8F8A8F8A8D9B8D0197F1F79B8F2E
:102A50008A8F0FC069A57AA58BA59CA50E94490005
:102A6000DC01CB0188A788A5898F898D8A95F1F72C
:102A7000898F8AA9882329F081E00E94110B809315
:102A80002F0280E062E040E00E94EB0880E090E0EE
:102A9000A0E2B1E48D8B9E8BAF8BB88F6D897E8960
:102AA0008F89988D2BEA3AEA4AE250E40E941F028D
:102AB000DC01CB01898B9A8BAB8BBC8B69897A89C2
:102AC0008B899C8920E030E040E85FE30E94250488
:102AD00088231CF481E0888B91C069897A898B896D
:102AE0009C8920E030E04FE753E40E94C5031816AC
:102AF0000CF07BC06D897E898F89988D20E030E055
:102B00004AE754E40E941903DC01CB018C879D87BE
:102B1000AE87BF876C857D858E859F8520E030E000
:102B20004AEF54E40E941F02DC01CB018887998799
:102B3000AA87BB87688579858A859B8520E030E0F8
:102B400040E85FE30E94250488232CF481E090E0B4
:102B50009F838E833FC0688579858A859B8520E029
:102B60003FEF4FE757E40E94C50318164CF56C85FC
:102B70007D858E859F8520E030E040E251E40E9413
:102B80001F02DC01CB01BC01CD010E944900DC0128
:102B9000CB019F838E830FC088EC90E09D838C8354
:102BA0008C819D810197F1F79D838C838E819F811C
:102BB00001979F838E838E819F81009769F724C040
:102BC000688579858A859B850E944900DC01CB0157
:102BD0009F838E838E819F819B838A838A819B8141
:102BE0000197F1F79B838A830FC069897A898B8962
:102BF0009C890E944900DC01CB01888B88898983EC
:102C000089818A95F1F7898381E061E00E944F060E
:102C1000E3960FB6F894DEBF0FBECDBFCF91DF9124
:102C20000895DF93CF9300D0CDB7DEB79A83898321
:102C3000898160E041E00E9445140F900F90CF9190
:102C4000DF910895DF93CF93CDB7DEB761970FB6CD
:102C5000F894DEBF0FBECDBF998B888B1F8612C044
:102C60000E94F8178F85282F30E088899989FC0108
:102C7000E20FF31F8081882F90E00E9411168F854C
:102C80008F5F8F878F85282F30E088899989FC0195
:102C9000E20FF31F8081882319F780E090E0AAE714
:102CA000B4E48B879C87AD87BE876B857C858D85DB
:102CB0009E8520E030E04AEF54E40E941F02DC01D0
:102CC000CB018F839887A987BA876F81788589859B
:102CD0009A8520E030E040E85FE30E9425048823E5
:102CE0002CF481E090E09E838D833FC06F817885D6
:102CF00089859A8520E03FEF4FE757E40E94C5039E
:102D000018164CF56B857C858D859E8520E030E01E
:102D100040E251E40E941F02DC01CB01BC01CD0165
:102D20000E944900DC01CB019E838D830FC088EC9B
:102D300090E09C838B838B819C810197F1F79C832E
:102D40008B838D819E8101979E838D838D819E8152
:102D5000009769F714C06F81788589859A850E94EC
:102D60004900DC01CB019E838D838D819E819A83F6
:102D7000898389819A810197F1F79A8389838F8565
:102D800061960FB6F894DEBF0FBECDBFCF91DF9135
:102D90000895DF93CF93CDB7DEB76D970FB6F89454
:102DA000DEBF0FBECDBF8C8F6D8F1A8E80E48B8FF0
:102DB0008D8D882F90E09C0121503040CE014A96A5
:102DC000FC01E20FF31F90818C8D890F8150898F58
:102DD000898D8058898F898D60E040E00E9445147C
:102DE00080E090E0A0EAB1E48D8B9E8BAF8BB88F32
:102DF0006D897E898F89988D2BEA3AEA4AE250E400
:102E00000E941F02DC01CB01898B9A8BAB8BBC8BA0
:102E100069897A898B899C8920E030E040E85FE30A
:102E20000E94250488231CF481E0888B91C0698965
:102E30007A898B899C8920E030E04FE753E40E9437
:102E4000C50318160CF07BC06D897E898F89988D1B
:102E500020E030E04AE754E40E941903DC01CB0192
:102E60008C879D87AE87BF876C857D858E859F8586
:102E700020E030E04AEF54E40E941F02DC01CB0165
:102E800088879987AA87BB87688579858A859B8586
:102E900020E030E040E85FE30E94250488232CF422
:102EA00081E090E09F838E833FC0688579858A8525
:102EB0009B8520E03FEF4FE757E40E94C5031816BB
:102EC0004CF56C857D858E859F8520E030E040E265
:102ED00051E40E941F02DC01CB01BC01CD010E9424
:102EE0004900DC01CB019F838E830FC088EC90E00A
:102EF0009D838C838C819D810197F1F79D838C83C9
:102F00008E819F8101979F838E838E819F81009701
:102F100069F724C0688579858A859B850E94490068
:102F2000DC01CB019F838E838E819F819B838A836B
:102F30008A819B810197F1F79B838A830FC06989FE
:102F40007A898B899C890E944900DC01CB01888B9E
:102F50008889898389818A95F1F789836D960FB66F
:102F6000F894DEBF0FBECDBFCF91DF910895DF9300
:102F7000CF930F92CDB7DEB7198280E061E040E0D9
:102F80000E94451480912F028F77898389810F9049
:102F9000CF91DF910895DF93CF9300D0CDB7DEB707
:102FA00089836A83898161E00E94C91614C089817E
:102FB000813148F081E08983898162E00E94C916ED
:102FC0008A8180518A8380E260E041E00E9445145A
:102FD00089818F5F898399818A81891740F781E090
:102FE00061E00E94C9160F900F90CF91DF91089574
:102FF000DF93CF93CDB7DEB72E970FB6F894DEBF31
:103000000FBECDBF0E94B7178F3029F481E062E078
:103010000E94C91680C00E94B7178F3409F07BC088
:1030200081E060E040E00E94451480E090E0A0EA8A
:10303000B0E48B879C87AD87BE876B857C858D854B
:103040009E8520E030E04AEF54E40E941F02DC013C
:10305000CB018F839887A987BA876F817885898507
:103060009A8520E030E040E85FE30E942504882351
:103070002CF481E090E09E838D833FC06F81788542
:1030800089859A8520E03FEF4FE757E40E94C5030A
:1030900018164CF56B857C858D859E8520E030E08B
:1030A00040E251E40E941F02DC01CB01BC01CD01D2
:1030B0000E944900DC01CB019E838D830FC088EC08
:1030C00090E09C838B838B819C810197F1F79C839B
:1030D0008B838D819E8101979E838D838D819E81BF
:1030E000009769F714C06F81788589859A850E9459
:1030F0004900DC01CB019E838D838D819E819A8363
:10310000898389819A810197F1F79A83898381E084
:1031100061E00E94C9162E960FB6F894DEBF0FBE6E
:10312000CDBFCF91DF910895DF93CF93CDB7DEB7B9
:1031300086E090E00E94A52F90933D0280933C0290
:10314000E0913C02F0913D0211821082E0913C023C
:10315000F0913D0215821482E0913C02F0913D0213
:103160001282E0913C02F0913D02138280913C0278
:1031700090913D0290933B0280933A02CF91DF9170
:103180000895DF93CF93CDB7DEB72B970FB6F894A2
:10319000DEBF0FBECDBF998788876A871F821E82D8
:1031A0001D821C821B8280913C0290913D02909373
:1031B0003B0280933A0286E090E00E94A52F9A831A
:1031C000898389819A81009731F48DE690E00E948D
:1031D00022161B866FC0809130028F5F8093300271
:1031E000809133028F5F8093330205C08E819F816F
:1031F00001969F838E832E813F8188859985FC016E
:10320000E20FF31F8081882389F78E819F810196C9
:103210000E94A52FE981FA8191838083E0913A028F
:10322000F0913B0284819581E981FA8195838483C1
:1032300080913302E981FA818283E981FA818A856A
:1032400083831D821C821BC02C813D8188859985CA
:10325000FC01E20FF31F80810E94861E8B83E981AF
:10326000FA81208131818C819D81F901E80FF91F5C
:103270008B8180838C819D8101969D838C832C81A1
:103280003D818E819F8128173907F4F2E981FA8107
:10329000208131818C819D81F901E80FF91F108215
:1032A000E0913A02F0913B0289819A81958384836F
:1032B00081E08B878B852B960FB6F894DEBF0FBE0F
:1032C000CDBFCF91DF910895DF93CF9300D0CDB7DD
:1032D000DEB71A821982E0913A02F0913B028481B2
:1032E00095810097C1F080913A0290913B029A83B8
:1032F0008983E0913A02F0913B0284819581909319
:103300003B0280933A020E94641989819A819093CA
:103310003B0280933A0280913A0290913B020E94D4
:1033200052301092300280E00F900F90CF91DF91D9
:103330000895DF93CF93CDB7DEB70E94A6190E9400
:1033400064190E949418CF91DF910895DF93CF9371
:10335000CDB7DEB780913C0290913D0290933B0245
:1033600080933A02CF91DF910895DF93CF93CDB749
:10337000DEB727970FB6F894DEBF0FBECDBF9C8394
:103380008B836D834E831A8219828B819C816D8120
:103390000E94F4199A8389838E81882351F489814C
:1033A0009A81009719F480E38F8314C081E38F839F
:1033B00011C089819A81009719F480E38F830AC034
:1033C0008D810E94871D813319F481E38F8302C0B0
:1033D00080E38F838F8127960FB6F894DEBF0FBEF0
:1033E000CDBFCF91DF910895DF93CF93CDB7DEB7F7
:1033F0002B970FB6F894DEBF0FBECDBF98878F8393
:1034000069871E829091DD018985891729F0909145
:10341000DF018985891779F49091DF018985891702
:1034200019F40E947C2E04C08091DD010E94922A32
:1034300081E08E8309C09091DC018985891721F490
:103440008091DC010E94922AE0913C02F0913D02C1
:103450008481958190933B0280933A021D821C8265
:103460001B8281E090E09A83898325C0E0913A0233
:10347000F0913B02208131818F819885B9010E94B2
:10348000F91C882349F081E08D8380913A02909164
:103490003B029B878A8736C0E0913A02F0913B025B
:1034A0008481958190933B0280933A0289819A812D
:1034B00001969A83898380913002282F332727FD34
:1034C000309589819A812817390784F68D8191E09A
:1034D0008927882359F080913C0290913D02909376
:1034E0003B0280933A021B861A860CC080913C02F4
:1034F00090913D0290933B0280933A028B819C8194
:103500009B878A878A859B852B960FB6F894DEBFAA
:103510000FBECDBFCF91DF910895DF93CF93CDB78D
:10352000DEB7AC970FB6F894DEBF0FBECDBF8BA74A
:10353000E0913C02F0913D028481958190933B02A1
:1035400080933A0281E061E00E94C91688E790E02A
:103550000E94221681E062E00E94C916809130022A
:10356000992787FD90950E94741C80E090E0AAE75F
:10357000B4E48FA398A7A9A7BAA76FA178A589A536
:103580009AA520E030E04AEF54E40E941F02DC01DB
:10359000CB018BA39CA3ADA3BEA36BA17CA18DA1EA
:1035A0009EA120E030E040E85FE30E9425048823EC
:1035B0002CF481E090E09AA389A33FC06BA17CA189
:1035C0008DA19EA120E03FEF4FE757E40E94C50385
:1035D00018164CF56FA178A589A59AA520E030E0D2
:1035E00040E251E40E941F02DC01CB01BC01CD018D
:1035F0000E944900DC01CB019AA389A30FC088EC8B
:1036000090E098A38F8F8F8D98A10197F1F798A3E1
:103610008F8F89A19AA101979AA389A389A19AA1C1
:10362000009769F714C06BA17CA18DA19EA10E9497
:103630004900DC01CB019AA389A389A19AA19E8F9D
:103640008D8F8D8D9E8D0197F1F79E8F8D8F81E0EF
:1036500060E20E94CB1780913A0290913B02009762
:1036600009F084C089E890E00E94221680E090E092
:10367000AAEFB4E4898F9A8FAB8FBC8F698D7A8D56
:103680008B8D9C8D20E030E04AEF54E40E941F02B5
:10369000DC01CB018D8B9E8BAF8BB88F6D897E89C2
:1036A0008F89988D20E030E040E85FE30E94250498
:1036B00088232CF481E090E09C8B8B8B3FC06D893C
:1036C0007E898F89988D20E03FEF4FE757E40E9475
:1036D000C50318164CF5698D7A8D8B8D9C8D20E075
:1036E00030E040E251E40E941F02DC01CB01BC014A
:1036F000CD010E944900DC01CB019C8B8B8B0FC05C
:1037000088EC90E09A8B898B89899A890197F1F7E7
:103710009A8B898B8B899C8901979C8B8B8B8B894E
:103720009C89009769F714C06D897E898F89988D6F
:103730000E944900DC01CB019C8B8B8B8B899C897F
:10374000988B8F878F8598890197F1F7988B8F8752
:1037500081E060E20E94CB1780913C0290913D0293
:1037600090933B0280933A021CA6B4C081E061E0D2
:103770000E94C91684E990E00E942216E0913A0264
:10378000F0913B02808191810E94221680E090E0BE
:10379000AAE7B4E48B879C87AD87BE876B857C8561
:1037A0008D859E8520E030E04AEF54E40E941F02A0
:1037B000DC01CB018F839887A987BA876F817885D1
:1037C00089859A8520E030E040E85FE30E94250487
:1037D00088232CF481E090E09E838D833FC06F812D
:1037E000788589859A8520E03FEF4FE757E40E946E
:1037F000C50318164CF56B857C858D859E8520E06C
:1038000030E040E251E40E941F02DC01CB01BC0128
:10381000CD010E944900DC01CB019E838D830FC046
:1038200088EC90E09C838B838B819C810197F1F7DE
:103830009C838B838D819E8101979E838D838D8157
:103840009E81009769F714C06F81788589859A8574
:103850000E944900DC01CB019E838D838D819E8176
:103860009A83898389819A810197F1F79A83898361
:1038700081E060E20E94CB179091DD018BA5891752
:1038800071F4E0913A02F0913B0280819181E091E4
:103890003A02F0913B022381622F0E94550EE09183
:1038A0003A02F0913B028481958190933B02809390
:1038B0003A0280913A0290913B02009709F056CF6C
:1038C00080913C0290913D0290933B0280933A029A
:1038D00081E08CA78CA5AC960FB6F894DEBF0FBE26
:1038E000CDBFCF91DF910895DF93CF93CDB7DEB7F2
:1038F00027970FB6F894DEBF0FBECDBF9F838E8390
:103900008AE090E00E94A52F9D838C831B821A82FF
:103910008A81992787FD90959C01220F331F8C8106
:103920009D81FC01E20FF31F8E819F812AE030E030
:10393000B9010E945A2FC096918380838A818F5F3C
:103940008A838E819F812AE030E0B9010E945A2F3C
:10395000CB019F838E838E819F810097C9F68A81D8
:10396000992787FD90959C01220F331F8C819D81A3
:10397000FC01E20FF31F118210821B8203C08B81B6
:103980008F5F8B838B81992787FD90959C01220FF8
:10399000331F8C819D81FC01E20FF31F8081918197
:1039A000009769F78B818150898313C0898199279A
:1039B00087FD90959C01220F331F8C819D81FC0116
:1039C000E20FF31F808191810E941116898181503D
:1039D00089838981882354F78C819D810E9452308C
:1039E00027960FB6F894DEBF0FBECDBFCF91DF9103
:1039F0000895DF93CF93CDB7DEB727970FB6F8942E
:103A0000DEBF0FBECDBF9C838B837E836D831A8206
:103A10008B819C812D813E81B9010E94471D8A8343
:103A20008A81882349F1198219C08981282F30E0C1
:103A30008B819C81FC01E20FF31F40818981282F3B
:103A400030E08D819E81FC01E20FF31F80814817D9
:103A500011F01F8212C089818F5F89838981282F8D
:103A600030E08B819C81FC01E20FF31F8081882371
:103A7000E1F681E08F8301C01F828F8127960FB608
:103A8000F894DEBF0FBECDBFCF91DF910895DF93D5
:103A9000CF93CDB7DEB727970FB6F894DEBF0FBE32
:103AA000CDBF9C838B837E836D831A82198203C072
:103AB0008A818F5F8A838A81282F30E08B819C8165
:103AC000FC01E20FF31F8081882391F703C08981F5
:103AD0008F5F89838981282F30E08D819E81FC0151
:103AE000E20FF31F8081882391F799818A819817CB
:103AF00019F481E08F8301C01F828F8127960FB652
:103B0000F894DEBF0FBECDBFCF91DF910895DF9354
:103B1000CF9300D0CDB7DEB789839091DD01898145
:103B2000891751F4E0913A02F0913B02838180932E
:103B3000320281E38A831AC09091DF01898189175B
:103B400019F481E38A8312C0E0913A02F0913B02BA
:103B5000938180913202981729F41092320281E306
:103B60008A8304C01092320280E38A838A810F9094
:103B70000F90CF91DF910895DF93CF9300D000D0C5
:103B800000D0CDB7DEB79C838B837E836D831A8292
:103B9000198281E08A8318C08981282F30E08D81C5
:103BA0009E81DC01A20FB31F8A81282F30E08B8118
:103BB0009C81FC01E20FF31F80818C9389818F5FD0
:103BC00089838A818F5F8A838A81282F30E08B8165
:103BD0009C81FC01E20FF31F8081882359F08A81C8
:103BE000282F30E08B819C81FC01E20FF31F808144
:103BF0008A3291F68981282F30E08D819E81FC01E7
:103C0000E20FF31F10828D819E8126960FB6F894E5
:103C1000DEBF0FBECDBFCF91DF910895DF93CF936D
:103C200000D000D00F92CDB7DEB71C821B821A8263
:103C30008091DD010E94922AE0913C02F0913D02C8
:103C40008481958190933B0280933A0280913A025D
:103C500090913B02009769F482E20E943E0E8091AF
:103C60003C0290913D0290933B0280933A021D8268
:103C700044C08091DC010E94312F9B838A83809114
:103C8000DD010E948D1A8FE990E00E94221681E0EA
:103C900060E20E94CB1786E20E943E0E0E94A00EB8
:103CA00090E3692F0E944E2F892F8C838C81882F5F
:103CB00090E00E94741C198211C08C81282F30E082
:103CC0008A819B81FC01E20FF31F90818981890F1A
:103CD00060E30E94B52989818F5F8983898188305B
:103CE00060F30E942F2C80913C0290913D029093B2
:103CF0003B0280933A0281E08D838D810F900F907B
:103D00000F900F900F90CF91DF910895DF93CF9395
:103D100000D0CDB7DEB789838981813440F08981B5
:103D20008B3528F48981982F905E9A8302C089810F
:103D30008A838A810F900F90CF91DF9108950F931E
:103D40001F93DF93CF93CDB7DEB7C85DD0400FB6DA
:103D5000F894DEBF0FBECDBFCE0186539F4F2FE03C
:103D6000FC01DF01822F1D928A95E9F7FE01E753DE
:103D7000FF4F1082FE01E853FF4F1082FE01E9530E
:103D8000FF4F10820E94F0100E9494180E94AC29EC
:103D90000E94280E83E067E041E00E94ED060E9449
:103DA000712EFE01E753FF4F90E3692F0E944E2FC3
:103DB000892F8083FE01E753FF4F83E067E0408156
:103DC0000E94EB080E942F2C80912C02882319F06E
:103DD00010922C0206C00E94A00EFE01E753FF4F76
:103DE000808380912B02882369F310922B0289EB48
:103DF00090E00E94221686EC90E022ED30E0B901BE
:103E00000E9483298BED90E00E94221681E062E0FF
:103E10000E94C9160E94A00EFE01E753FF4F808347
:103E200080912B02882321F081E080932C02CACF5D
:103E30008091DD010E94D92BFE01E853FF4F808362
:103E4000FE01E753FF4F8081873609F01AC4FE0157
:103E5000E853FF4F8081803309F413C481E390E07D
:103E60000E941116FE01EF53FF4F80E090E0AAEF91
:103E7000B3E480839183A283B3838E0103541F4FE5
:103E8000FE01EF53FF4F608171818281938120E0B9
:103E900030E04AEF54E40E941F02DC01CB01F8013C
:103EA00080839183A283B383FE01E354FF4F60813B
:103EB00071818281938120E030E040E85FE30E94DD
:103EC0002504882344F4FE01E554FF4F81E090E08F
:103ED0009183808364C0FE01E354FF4F6081718150
:103EE0008281938120E03FEF4FE757E40E94C503B2
:103EF00018160CF043C0FE01EF53FF4F6081718133
:103F00008281938120E030E040E251E40E941F0270
:103F1000DC01CB018E0105541F4FBC01CD010E9475
:103F20004900DC01CB01F801918380831FC0FE01B1
:103F3000E754FF4F88EC90E091838083FE01E754C3
:103F4000FF4F808191810197F1F7FE01E754FF4F08
:103F500091838083DE01A554BF4FFE01E554FF4FDE
:103F600080819181019711969C938E93FE01E55477
:103F7000FF4F808191810097D1F627C08E010554B3
:103F80001F4FFE01E354FF4F608171818281938155
:103F90000E944900DC01CB01F80191838083DE019E
:103FA000A954BF4FFE01E554FF4F808191818D934D
:103FB0009C93FE01E954FF4F808191810197F1F7B5
:103FC000FE01E954FF4F9183808381E060E20E940B
:103FD000CB1783EE90E00E94221681E062E00E94FF
:103FE000C9168EE70E943E0E8091DD0161E00E94BD
:103FF000C10E009709F0BCC0FE01ED54FF4F80E0F8
:1040000090E0AAEFB3E480839183A283B3838E010F
:1040100001551F4FFE01ED54FF4F60817181828178
:10402000938120E030E04AEF54E40E941F02DC015B
:10403000CB01F80180839183A283B383FE01E15514
:10404000FF4F608171818281938120E030E040E800
:104050005FE30E942504882344F4FE01E355FF4FEB
:1040600081E090E09183808364C0FE01E155FF4FC1
:10407000608171818281938120E03FEF4FE757E4B7
:104080000E94C50318160CF043C0FE01ED54FF4F0B
:10409000608171818281938120E030E040E251E4CF
:1040A0000E941F02DC01CB018E0103551F4FBC0192
:1040B000CD010E944900DC01CB01F801918380838E
:1040C0001FC0FE01E555FF4F88EC90E0918380838F
:1040D000FE01E555FF4F808191810197F1F7FE01C7
:1040E000E555FF4F91838083DE01A355BF4FFE014D
:1040F000E355FF4F80819181019711969C938E9398
:10410000FE01E355FF4F808191810097D1F627C0D2
:104110008E0103551F4FFE01E155FF4F60817181F4
:10412000828193810E944900DC01CB01F8019183D7
:104130008083DE01A755BF4FFE01E355FF4F80810D
:1041400091818D939C93FE01E755FF4F8081918172
:104150000197F1F7FE01E755FF4F9183808381E0DE
:1041600060E20E94CB1784EF90E00E9422162ACED4
:10417000FE01EB55FF4F80E090E0AAEFB3E48083AF
:104180009183A283B3838E010F551F4FFE01EB5520
:10419000FF4F608171818281938120E030E04AEF9E
:1041A00054E40E941F02DC01CB01F801808391835B
:1041B000A283B383FE01EF55FF4F6081718182813D
:1041C000938120E030E040E85FE30E9425048823EB
:1041D00044F4FE01E156FF4F81E090E0918380833B
:1041E00064C0FE01EF55FF4F608171818281938130
:1041F00020E03FEF4FE757E40E94C50318160CF08C
:1042000043C0FE01EB55FF4F608171818281938134
:1042100020E030E040E251E40E941F02DC01CB01CB
:104220008E0101561F4FBC01CD010E944900DC01E7
:10423000CB01F801918380831FC0FE01E356FF4F3D
:1042400088EC90E091838083FE01E356FF4F8081EC
:1042500091810197F1F7FE01E356FF4F918380832F
:10426000DE01A156BF4FFE01E156FF4F80819181D3
:10427000019711969C938E93FE01E156FF4F80812A
:1042800091810097D1F627C08E0101561F4FFE0184
:10429000EF55FF4F60817181828193810E944900B7
:1042A000DC01CB01F80191838083DE01A556BF4F6D
:1042B000FE01E156FF4F808191818D939C93FE0119
:1042C000E556FF4F808191810197F1F7FE01E55698
:1042D000FF4F9183808381E060E20E94CB178CE1E5
:1042E00092E09E0126533F4FB9010E94BC1D2091D0
:1042F000DD018CE192E0622F40E00E94B51981332C
:1043000071F482E091E00E94221681E060E20E9456
:10431000CB170E94991981E20E943E0E53CD9091D5
:10432000DD01FE01E853FF4F9E0126533F4F808180
:10433000B901492F0E94D2290E9499198DE091E07C
:104340000E94221681E062E00E94C91680E40E9469
:104350003E0E8091DC0161E00E94C10E009709F0E1
:10436000B8C0FE01E956FF4F80E090E0AAEFB3E449
:1043700080839183A283B3838E010D561F4FFE016C
:10438000E956FF4F608171818281938120E030E0A6
:104390004AEF54E40E941F02DC01CB01F801808344
:1043A0009183A283B383FE01ED56FF4F608171813B
:1043B0008281938120E030E040E85FE30E942504A1
:1043C000882344F4FE01EF56FF4F81E090E0918393
:1043D000808364C0FE01ED56FF4F60817181828150
:1043E000938120E03FEF4FE757E40E94C503181682
:1043F0000CF043C0FE01E956FF4F6081718182815C
:10440000938120E030E040E251E40E941F02DC0191
:10441000CB018E010F561F4FBC01CD010E944900F8
:10442000DC01CB01F801918380831FC0FE01E157BD
:10443000FF4F88EC90E091838083FE01E157FF4FAE
:10444000808191810197F1F7FE01E157FF4F918340
:104450008083DE01AF56BF4FFE01EF56FF4F8081D4
:104460009181019711969C938E93FE01EF56FF4F19
:10447000808191810097D1F627C08E010F561F4F82
:10448000FE01ED56FF4F60817181828193810E9410
:104490004900DC01CB01F80191838083DE01A35741
:1044A000BF4FFE01EF56FF4F808191818D939C930A
:1044B000FE01E357FF4F808191810197F1F7FE01E3
:1044C000E357FF4F9183808381E060E20E94CB1726
:1044D00079CCFE01E757FF4F80E090E0AAEFB3E40C
:1044E00080839183A283B3838E010B571F4FFE01FC
:1044F000E757FF4F608171818281938120E030E036
:104500004AEF54E40E941F02DC01CB01F8018083D2
:104510009183A283B383FE01EB57FF4F60817181CA
:104520008281938120E030E040E85FE30E9425042F
:10453000882344F4FE01ED57FF4F81E090E0918322
:10454000808364C0FE01EB57FF4F608171818281DF
:10455000938120E03FEF4FE757E40E94C503181610
:104560000CF043C0FE01E757FF4F608171818281EB
:10457000938120E030E040E251E40E941F02DC0120
:10458000CB018E010D571F4FBC01CD010E94490088
:10459000DC01CB01F801918380831FC0FE01EF573E
:1045A000FF4F88EC90E091838083FE01EF57FF4F2F
:1045B000808191810197F1F7FE01EF57FF4F9183C1
:1045C0008083DE01AD57BF4FFE01ED57FF4F808165
:1045D0009181019711969C938E93FE01ED57FF4FA9
:1045E000808191810097D1F627C08E010D571F4F12
:1045F000FE01EB57FF4F60817181828193810E94A0
:104600004900DC01CB01F80191838083DE01A158D0
:10461000BF4FFE01ED57FF4F808191818D939C9399
:10462000FE01E158FF4F808191810197F1F7FE0172
:10463000E158FF4F9183808381E060E20E94CB17B5
:104640008CE192E09E0126533F4FB9010E94BC1DB0
:104650009091DC01FE01E853FF4F9E0126533F4F2E
:104660008081B901492F0E94D2298DE191E00E94F9
:10467000221681E060E10E94CB1783E20E943E0E89
:10468000A1CBFE01E753FF4F8081833609F036C688
:1046900082E390E00E941116FE01E558FF4F80E092
:1046A00090E0AAEFB3E480839183A283B3838E0169
:1046B00009581F4FFE01E558FF4F608171818281CB
:1046C000938120E030E04AEF54E40E941F02DC01B5
:1046D000CB01F80180839183A283B383FE01E95863
:1046E000FF4F608171818281938120E030E040E85A
:1046F0005FE30E942504882344F4FE01EB58FF4F3A
:1047000081E090E09183808364C0FE01E958FF4F0F
:10471000608171818281938120E03FEF4FE757E410
:104720000E94C50318160CF043C0FE01E558FF4F68
:10473000608171818281938120E030E040E251E428
:104740000E941F02DC01CB018E010B581F4FBC01E0
:10475000CD010E944900DC01CB01F80191838083E7
:104760001FC0FE01ED58FF4F88EC90E091838083DD
:10477000FE01ED58FF4F808191810197F1F7FE0115
:10478000ED58FF4F91838083DE01AB58BF4FFE0190
:10479000EB58FF4F80819181019711969C938E93E6
:1047A000FE01EB58FF4F808191810097D1F627C021
:1047B0008E010B581F4FFE01E958FF4F6081718138
:1047C000828193810E944900DC01CB01F801918331
:1047D0008083DE01AF58BF4FFE01EB58FF4F808151
:1047E00091818D939C93FE01EF58FF4F80819181C1
:1047F0000197F1F7FE01EF58FF4F9183808381E02D
:1048000060E20E94CB178AE291E00E94221681E0CA
:1048100062E00E94C91685E20E943E0E8091DD0191
:1048200061E00E94C10E009709F0B8C0FE01E35993
:10483000FF4F80E090E0AAEFB3E480839183A283EE
:10484000B3838E0107591F4FFE01E359FF4F60816B
:1048500071818281938120E030E04AEF54E40E942C
:104860001F02DC01CB01F80180839183A283B38313
:10487000FE01E759FF4F608171818281938120E0C1
:1048800030E040E85FE30E942504882344F4FE0101
:10489000E959FF4F81E090E09183808364C0FE017D
:1048A000E759FF4F608171818281938120E03FEF62
:1048B0004FE757E40E94C50318160CF043C0FE01F1
:1048C000E359FF4F608171818281938120E030E064
:1048D00040E251E40E941F02DC01CB018E01095924
:1048E0001F4FBC01CD010E944900DC01CB01F80142
:1048F000918380831FC0FE01EB59FF4F88EC90E04D
:1049000091838083FE01EB59FF4F80819181019754
:10491000F1F7FE01EB59FF4F91838083DE01A95926
:10492000BF4FFE01E959FF4F808191810197119698
:104930009C938E93FE01E959FF4F808191810097EE
:10494000D1F627C08E0109591F4FFE01E759FF4FCD
:1049500060817181828193810E944900DC01CB01D9
:10496000F80191838083DE01AD59BF4FFE01E95903
:10497000FF4F808191818D939C93FE01ED59FF4FF4
:10498000808191810197F1F7FE01ED59FF4F9183ED
:10499000808381E060E20E94CB1714CAFE01E15AD5
:1049A000FF4F80E090E0AAEFB3E480839183A2837D
:1049B000B3838E01055A1F4FFE01E15AFF4F6081FC
:1049C00071818281938120E030E04AEF54E40E94BB
:1049D0001F02DC01CB01F80180839183A283B383A2
:1049E000FE01E55AFF4F608171818281938120E051
:1049F00030E040E85FE30E942504882344F4FE0190
:104A0000E75AFF4F81E090E09183808364C0FE010C
:104A1000E55AFF4F608171818281938120E03FEFF1
:104A20004FE757E40E94C50318160CF043C0FE017F
:104A3000E15AFF4F608171818281938120E030E0F3
:104A400040E251E40E941F02DC01CB018E01075AB3
:104A50001F4FBC01CD010E944900DC01CB01F801D0
:104A6000918380831FC0FE01E95AFF4F88EC90E0DC
:104A700091838083FE01E95AFF4F808191810197E4
:104A8000F1F7FE01E95AFF4F91838083DE01A75AB7
:104A9000BF4FFE01E75AFF4F808191810197119628
:104AA0009C938E93FE01E75AFF4F8081918100977E
:104AB000D1F627C08E01075A1F4FFE01E55AFF4F5E
:104AC00060817181828193810E944900DC01CB0168
:104AD000F80191838083DE01AB5ABF4FFE01E75A94
:104AE000FF4F808191818D939C93FE01EB5AFF4F84
:104AF000808191810197F1F7FE01EB5AFF4F91837D
:104B0000808381E060E20E94CB172091DD018CE17F
:104B100092E0622F41E00E94B519813309F019C279
:104B20000E9499198DE091E00E9422168EE50E9464
:104B30003E0EFE01EA53FF4F1082F3C181E062E0B6
:104B40000E94C9168091DC0161E00E94C10E0097AD
:104B500009F0B8C0FE01EF5AFF4F80E090E0AAEFE5
:104B6000B3E480839183A283B3838E01035B1F4FE1
:104B7000FE01EF5AFF4F608171818281938120E0B5
:104B800030E04AEF54E40E941F02DC01CB01F8013F
:104B900080839183A283B383FE01E35BFF4F608137
:104BA00071818281938120E030E040E85FE30E94E0
:104BB0002504882344F4FE01E55BFF4F81E090E08B
:104BC0009183808364C0FE01E35BFF4F608171814C
:104BD0008281938120E03FEF4FE757E40E94C503B5
:104BE00018160CF043C0FE01EF5AFF4F608171812F
:104BF0008281938120E030E040E251E40E941F0274
:104C0000DC01CB018E01055B1F4FBC01CD010E9471
:104C10004900DC01CB01F801918380831FC0FE01B4
:104C2000E75BFF4F88EC90E091838083FE01E75BB8
:104C3000FF4F808191810197F1F7FE01E75BFF4F04
:104C400091838083DE01A55BBF4FFE01E55BFF4FD3
:104C500080819181019711969C938E93FE01E55B73
:104C6000FF4F808191810097D1F627C08E01055BAF
:104C70001F4FFE01E35BFF4F608171818281938151
:104C80000E944900DC01CB01F80191838083DE01A1
:104C9000A95BBF4FFE01E55BFF4F808191818D9342
:104CA0009C93FE01E95BFF4F808191810197F1F7B1
:104CB000FE01E95BFF4F9183808381E060E20E9407
:104CC000CB1736C1FE01ED5BFF4F80E090E0AAEF0D
:104CD000B3E480839183A283B3838E01015C1F4F71
:104CE000FE01ED5BFF4F608171818281938120E045
:104CF00030E04AEF54E40E941F02DC01CB01F801CE
:104D000080839183A283B383FE01FF9660817181CA
:104D10008281938120E030E040E85FE30E94250437
:104D200088232CF481E090E09EAF8DAF46C0FE0159
:104D3000FF96608171818281938120E03FEF4FE790
:104D400057E40E94C503181664F5FE01ED5BFF4FA2
:104D5000608171818281938120E030E040E251E402
:104D60000E941F02DC01CB01BC01CD010E94490061
:104D7000DC01CB019EAF8DAF0FC088EC90E09CAF03
:104D80008BAF8BAD9CAD0197F1F79CAF8BAF8DAD29
:104D90009EAD01979EAF8DAF8DAD9EAD009769F72B
:104DA00016C0FE01FF9660817181828193810E940D
:104DB0004900DC01CB019EAF8DAF8DAD9EAD9AAFAA
:104DC00089AF89AD9AAD0197F1F79AAF89AF81E0CC
:104DD00060E20E94CB172091DC018CE192E0622F0F
:104DE00041E00E94B519813309F08BC081E061E098
:104DF0000E94C91684E391E00E94221680E090E0B0
:104E0000AAEFB3E48DAB9EABAFABB8AF6DA97EA9F3
:104E10008FA998AD20E030E04AEF54E40E941F02D1
:104E2000DC01CB0189AB9AABABABBCAB69A97AA96E
:104E30008BA99CA920E030E040E85FE30E942504B4
:104E400088232CF481E090E098AB8FA73FC069A93C
:104E50007AA98BA99CA920E03FEF4FE757E40E9475
:104E6000C50318164CF56DA97EA98FA998AD20E051
:104E700030E040E251E40E941F02DC01CB01BC01A2
:104E8000CD010E944900DC01CB0198AB8FA70FC078
:104E900088EC90E09EA78DA78DA59EA50197F1F7C0
:104EA0009EA78DA78FA598A9019798AB8FA78FA5CF
:104EB00098A9009769F714C069A97AA98BA99CA938
:104EC0000E944900DC01CB0198AB8FA78FA598A960
:104ED0009CA78BA78BA59CA50197F1F79CA78BA7F7
:104EE00081E060E20E94CB1788E20E943E0E0E94A1
:104EF000892C0E949919FE01E953FF4F81E08083BC
:104F000017C08EE391E00E94221689E20E943E0EB5
:104F1000DE01AA53BF4FFE01EA53FF4F80818F5F2E
:104F20008C93FE01EA53FF4F8081833008F406CE54
:104F3000FE01E953FF4F8081813031F4FE01E953D6
:104F4000FF4F10820C94E21E8FE50E943E0E0C94DF
:104F5000E21E2091DF018CE192E0622F41E00E948D
:104F6000B519813309F0C5C10E94991989E491E00E
:104F70000E9422168EE50E943E0EFE01EB53FF4F6B
:104F800010829FC181E062E00E94C9168091DD011C
:104F900061E00E94C10E009709F077C080E090E0C8
:104FA000AAEFB3E48FA398A7A9A7BAA76FA178A582
:104FB00089A59AA520E030E04AEF54E40E941F0240
:104FC000DC01CB018BA39CA3ADA3BEA36BA17CA1F1
:104FD0008DA19EA120E030E040E85FE30E9425041F
:104FE00088232CF481E090E09AA389A33FC06BA1B1
:104FF0007CA18DA19EA120E03FEF4FE757E40E94E6
:10500000C50318164CF56FA178A589A59AA520E0CF
:1050100030E040E251E40E941F02DC01CB01BC0100
:10502000CD010E944900DC01CB019AA389A30FC0E6
:1050300088EC90E098A38F8F8F8D98A10197F1F75E
:1050400098A38F8F89A19AA101979AA389A389A177
:105050009AA1009769F714C06BA17CA18DA19EA1B4
:105060000E944900DC01CB019AA389A389A19AA1DE
:105070009E8F8D8F8D8D9E8D0197F1F79E8F8D8FD9
:1050800081E060E20E94CB1723C180E090E0AAEFAC
:10509000B3E4898F9A8FAB8FBC8F698D7A8D8B8D9E
:1050A0009C8D20E030E04AEF54E40E941F02DC01B6
:1050B000CB018D8B9E8BAF8BB88F6D897E898F894D
:1050C000988D20E030E040E85FE30E9425048823CB
:1050D0002CF481E090E09C8B8B8B3FC06D897E89A6
:1050E0008F89988D20E03FEF4FE757E40E94C5037A
:1050F00018164CF5698D7A8D8B8D9C8D20E030E0F3
:1051000040E251E40E941F02DC01CB01BC01CD0151
:105110000E944900DC01CB019C8B8B8B0FC088EC7B
:1051200090E09A8B898B89899A890197F1F79A8BFC
:10513000898B8B899C8901979C8B8B8B8B899C8914
:10514000009769F714C06D897E898F89988D0E94B8
:105150004900DC01CB019C8B8B8B8B899C89988BC4
:105160008F878F8598890197F1F7988B8F8781E0DA
:1051700060E20E94CB172091DF018CE192E0622F68
:1051800041E00E94B519813309F08BC081E061E0F4
:105190000E94C91688E591E00E94221680E090E006
:1051A000AAEFB3E48B879C87AD87BE876B857C8530
:1051B0008D859E8520E030E04AEF54E40E941F0276
:1051C000DC01CB018F839887A987BA876F817885A7
:1051D00089859A8520E030E040E85FE30E9425045D
:1051E00088232CF481E090E09E838D833FC06F8103
:1051F000788589859A8520E03FEF4FE757E40E9444
:10520000C50318164CF56B857C858D859E8520E041
:1052100030E040E251E40E941F02DC01CB01BC01FE
:10522000CD010E944900DC01CB019E838D830FC01C
:1052300088EC90E09C838B838B819C810197F1F7B4
:105240009C838B838D819E8101979E838D838D812D
:105250009E81009769F714C06F81788589859A854A
:105260000E944900DC01CB019E838D838D819E814C
:105270009A83898389819A810197F1F79A83898337
:1052800081E060E20E94CB178DE30E943E0E0E94F7
:105290000E1E0E949919FE01E953FF4F81E08083A1
:1052A00017C08EE391E00E94221689E20E943E0E12
:1052B000DE01AB53BF4FFE01EB53FF4F80818F5F89
:1052C0008C93FE01EB53FF4F8081833008F45ACE5C
:1052D000FE01E953FF4F8081813031F4FE01E95333
:1052E000FF4F10820C94E21E8FE50E943E0E0C943C
:1052F000E21E8FE20E943E0E0C94E21E81E20E94AA
:105300003E0E0C94E21EDF93CF9300D000D0CDB7B9
:10531000DEB79A8389837C836B8381E060E20E949D
:10532000CB1781E061E00E94C91689819A810E94B1
:10533000221681E062E00E94C9168B819C810E9446
:10534000221681E060E20E94CB170F900F900F9021
:105350000F90CF91DF910895DF93CF93CDB7DEB754
:105360000E944D0CCF91DF910895DF93CF9300D031
:10537000CDB7DEB789836A8381E00E94620C82E048
:1053800060EA0E94160D82E069810E94160D81E09C
:105390006A810E94160D0E941D0E0F900F90CF91F2
:1053A000DF910895DF93CF93CDB7DEB72A970FB67D
:1053B000F894DEBF0FBECDBF8F83798768874A8799
:1053C0001E821D821C821B821A8219829091DD012D
:1053D0008A85891729F09091DF018A858917A1F4C0
:1053E0009091DF018A85891729F489E192E09C83F5
:1053F0008B8304C083E092E09C838B8381E08A836B
:105400008AE08093390216C09091DC018A85891761
:1054100051F48DE092E09C838B8381E0898387E067
:105420008093390207C083EE91E09C838B8388E0F0
:10543000809339028A81882319F48981882371F144
:105440008F81282F30E08B819C81FC01E20FF31FBC
:1054500080816AE20E94B52981E08E831FC08F811E
:10546000282F30E08B819C81FC01E20FF31F90819B
:105470008E81492F480F8D81282F30E088859985AE
:10548000FC01E20FF31F9081842F692F0E94B52940
:105490008D818F5F8D838E818F5F8E839091390296
:1054A0008E818917E8F48D81282F30E088859985D1
:1054B000FC01E20FF31F8081882389F611C08F81E0
:1054C000282F30E08B819C81FC01E20FF31F90813B
:1054D0008E81890F6EE20E94B5298E818F5F8E8347
:1054E000909139028E81891750F38A81882319F4AB
:1054F0008981882371F08F81282F30E08B819C81F6
:10550000FC01E20FF31F90818E81890F6AE20E94F5
:10551000B5292A960FB6F894DEBF0FBECDBFCF9146
:10552000DF910895DF93CF93CDB7DEB72B970FB6FA
:10553000F894DEBF0FBECDBF8A87198618861F82FA
:105540001E821D821C828FE090E00E94A52F9B830B
:105550008A838A819B81009739F485E791E00E94D4
:10556000221681E08B87B9C00E9499199091DD01C4
:105570008A85891769F483E092E098878F8389E0B0
:105580008093390281E0809335021092340211C079
:105590009091DC018A85891761F48DE092E098870B
:1055A0008F8386E08093390281E0809334021092E9
:1055B0003502198280C081E08D8381E08C831E8258
:1055C00071C08981282F332727FD30958F819885D9
:1055D000FC01E20FF31F90818E81890F0E94772BCF
:1055E00089878985803339F48D81813021F41D824A
:1055F00088E28E8354C08C81813081F48D8181302A
:1056000069F41C821D828E81282F30E08A819B8163
:10561000FC01E20FF31F8AE2808341C08E81882F54
:1056200090E09C012F5F3F4F80913902882F90E0DE
:105630008217930754F58E81282F30E08A819B8151
:10564000FC01E20FF31F898580838E81882F90E013
:105650009C012F5F3F4F8A819B81FC01E20FF31F6A
:105660008AE280838E81882F90E09C012E5F3F4FDD
:105670008A819B81FC01E20FF31F108229818A81BC
:105680009B81622F0E94C1180AC08E81282F30E0B2
:105690008A819B81FC01E20FF31F898580838E81C3
:1056A0008F5F8E83909139028E81981708F089CF91
:1056B00089818F5F89838981282F332727FD309542
:1056C0008091E001882F90E0281739070CF473CF00
:1056D0008A819B810E9452301B868B852B960FB648
:1056E000F894DEBF0FBECDBFCF91DF910895DF9359
:1056F000CF9300D0CDB7DEB78A83198281E00E94B4
:10570000620C82E060EA0E94160D82E06A810E94CB
:10571000160D82E00E94620C82E061EA0E94160D82
:1057200080E00E94E60D89830E941D0E89810F9002
:105730000F90CF91DF910895DF93CF9300D00F9218
:10574000CDB7DEB71B821A8219820EC02091E1010B
:105750003091E2019091DE018981B901492F0E94C7
:10576000D22989818F5F89838981803278F387E1AB
:1057700092E09B838A838A819B81FC0131968081A0
:1057800060E30E94B529EA81FB81808160E30E9489
:10579000B5290E94582E89E791E00E94221681E0E7
:1057A00060E10E94CB170F900F900F90CF91DF9187
:1057B0000895DF93CF9300D000D00F92CDB7DEB71E
:1057C0008C831B821A829091DD018C81891729F4C8
:1057D00083E092E09B838A8309C09091DC018C81F5
:1057E000891721F48DE092E09B838A838A819B81D3
:1057F000009741F486E891E00E94221681E060E281
:105800000E94CB17198213C08981282F30E08A812A
:105810009B81FC01E20FF31F80810E94772B803374
:1058200019F489818D8312C089818F5F898390915A
:10583000E0018981891740F387EA91E00E942216EE
:1058400081E060E20E94CB1780E38D838D810F9011
:105850000F900F900F900F90CF91DF910895DF93ED
:10586000CF9300D000D000D0CDB7DEB71E821D820E
:105870001C821B8283E092E09E838D838DE092E008
:105880009C838B831A8237C08A81282F30E08B81DA
:105890009C81FC01E20FF31F80810E94772B8033F3
:1058A00039F58A81282F30E08D819E81FC01E20F3D
:1058B000F31F80810E94772B8033D1F0198211C0B1
:1058C0008A81282F30E08D819E81FC01E20FF31F39
:1058D00090818981890F60E30E94B52989818F5F5A
:1058E000898389818B3060F381E060E20E94CB176D
:1058F0008A818F5F8A839091E0018A81891720F2E3
:1059000026960FB6F894DEBF0FBECDBFCF91DF91C4
:105910000895DF93CF93CDB7DEB7A4970FB6F89471
:10592000DEBF0FBECDBF1AA219A218A21F8E83E040
:1059300067E041E00E94ED0683E065E041E00E94FF
:10594000ED068FE19EE40E94AD100E94BF1082E040
:105950000E947D0F87E192E09AA389A38F8D88230F
:1059600009F09DC10E94A00E88A388A1282F30E0D5
:105970003CA32BA38BA19CA18B36910509F450C1AC
:105980002BA13CA12C36310534F48BA19CA18A3685
:10599000910571F081C12BA13CA12037310509F49B
:1059A0005DC18BA19CA18237910509F49DC074C192
:1059B000E9A1FAA180810E94772B813321F48CE741
:1059C0000E943E0ECBCFE9A1FAA1808161E30E9443
:1059D000B52984EA96E09E8F8D8F7BC08D8D9E8D3C
:1059E0000E943A1080E090E0A0EFB1E4898F9A8F96
:1059F000AB8FBC8F698D7A8D8B8D9C8D20E030E0D4
:105A00004AEF54E40E941F02DC01CB018D8B9E8B78
:105A1000AF8BB88F6D897E898F89988D20E030E0BB
:105A200040E85FE30E94250488232CF481E090E0A5
:105A30009C8B8B8B3FC06D897E898F89988D20E0F0
:105A40003FEF4FE757E40E94C50318164CF5698DE8
:105A50007A8D8B8D9C8D20E030E040E251E40E94F5
:105A60001F02DC01CB01BC01CD010E944900DC0119
:105A7000CB019C8B8B8B0FC088EC90E09A8B898B31
:105A800089899A890197F1F79A8B898B8B899C89EF
:105A900001979C8B8B8B8B899C89009769F714C02D
:105AA0006D897E898F89988D0E944900DC01CB0128
:105AB0009C8B8B8B8B899C89988B8F878F85988902
:105AC0000197F1F7988B8F878D8D9E8D44979E8FD0
:105AD0008D8F8D8D9E8D21E08535920708F07ECFCC
